:100000005EC000007DC20000A2C200007FC00000F0
:100010007DC000007BC0000079C000000DC700005B
:1000200075C0000073C0000071C000006FC0000008
:100030006DC0000067C7000069C0000067C0000015
:10004000ADC2000063C0000055C5000085C50000BA
:100050005DC000005BC0000059C0000057C0000038
:1000600055C0000053C0000000000008000201005D
:100070000003040700000000000000000102040863
:100080001020408001020408102001020408102002
:10009000040404040404040402020202020203032E
:1000A0000303030300000000250028002B000000CC
:1000B0000000240027002A000200D1053D0611247B
:1000C0001FBECFEFD8E0DEBFCDBF11E0A0E0B1E0B2
:1000D000ECE2F4E102C005900D92AC33B107D9F720
:1000E00022E0ACE3B1E001C01D92A734B207E1F712
:1000F00010E0CFE5D0E004C02197FE010E940E0A77
:10010000CD35D107C9F760D70C94140A79CF1F9366
:10011000CF93DF931F92CDB7DEB7162F61E0812F0B
:10012000798364D3812F7981972F0F90DF91CF91BD
:100130001F9108950895CF93C82FCB01BA01F3D72B
:100140008C2FCF91CDC2CF92DF92EF92FF926B01B5
:100150007C018EE0C816D104E104F10428F48EE09D
:10016000C80ED11CE11CF11C60E08C2D3FD3C601F0
:10017000FF90EF90DF90CF9008950895CF93DF9395
:10018000EB0191D299838883DF91CF9108950895EF
:10019000662311F061E001C060E028C3662311F01E
:1001A00061E001C060E05EC360E070E080E89FE76E
:1001B000089560E070E080E89FE7089560E070E0F7
:1001C00080E89FEF089560E070E080E89FEF089579
:1001D00060E070E080EC9FEF089560E070E080ECFC
:1001E0009FEF0895F5DF6093FF0170930002809305
:1001F000010290930202F1DF6093F3017093F40126
:100200008093F5019093F601CFDF6093FB0170932B
:10021000FC018093FD019093FE01CBDF6093F70119
:100220007093F8018093F9019093FA01C7DF60930E
:100230000302709304028093050290930602C3DFC9
:1002400060930702709308028093090290930A0258
:100250000895CF92DF92EF92FF921F93CF93DF9397
:1002600000D0CDB7DEB7C0900E01D0900F01E09066
:100270001001F0901101A701960160912302709185
:1002800024028091250290912602E1D6882341F034
:10029000C0922302D0922402E0922502F09226021C
:1002A000809121029091220272DF43E050E0BE0172
:1002B0006F5F7F4F80912102909122025FDFA091BA
:1002C0001A01B0911B0129813A810E94FF095CD774
:1002D00020E030E040E059E30E947A0920911201C9
:1002E000309113014091140150911501B4D6209121
:1002F0001601309117014091180150911901FAD758
:1003000011E020910A0130910B0140910C015091B4
:100310000D01ECD787FD10E061E0612787E03EDF4B
:10032000112349F060911C0170E080E090E02ED72D
:10033000AB01BC0103C040E050E0BA0180913D0236
:1003400090913E02F8DE0F900F90DF91CF911F91B8
:10035000FF90EF90DF90CF9008953F924F925F9281
:100360006F927F928F929F92AF92BF92CF92DF92C5
:10037000EF92FF920F931F93CF93DF9384E090E06F
:1003800031DF1092460210924502CBE0D2E08AE3C0
:10039000FE0111928A95E9F782E3F82EFE8203E3CB
:1003A0000F8394E3392E388625E3422E498636E3BF
:1003B000532E5A8647E3642E6B8658E3752E7C864F
:1003C00069E3C62ECD8611E31E8770E3E72EEF8624
:1003D000188B198B1A8BFB8A1C8B0D8B80910E014D
:1003E00090910F01A0911001B0911101888F998F08
:1003F000AA8FBB8F812C912C5401839489829A827D
:10040000AB82BC8260E070E0CB019DDE9F8B8E8B67
:1004100020E030E0A90160E070E0AFDEDD24D3949D
:10042000DD821CAA19AE8DAA9EAAAFAAB8AE61E061
:1004300087E0AEDED9AEFAA20BA33CA24DA25EA22B
:100440006FA278A6C9A61AA7EBA61CA71DA71EA770
:10045000FFA618AB09AB1C8E19A28D8E9E8EAF8E97
:10046000B8A2E12CF12C8701A801970165E070E0AA
:1004700080E090E04CDE9BAB8AAB5CDED9A2DF91E2
:10048000CF911F910F91FF90EF90DF90CF90BF9091
:10049000AF909F908F907F906F905F904F903F9024
:1004A000089580910B02811103C081E080930B02BB
:1004B00080913F02811103C081E080933F028091CF
:1004C000270281111BC081E08093270280912802BE
:1004D00090912902A0912A02B0912B020197A105C7
:1004E000B10561F480912C02882341F040E050E096
:1004F000BA0180913D0290913E021DCE089508956B
:100500001F920F920FB60F9211242F933F934F9388
:100510005F936F937F938F939F93AF93BF93EF936B
:10052000FF93E0911D01F0911E010995FF91EF915C
:10053000BF91AF919F918F917F916F915F914F91FB
:100540003F912F910F900FBE0F901F9018951F9203
:100550000F920FB60F9211242F933F934F935F93F7
:100560006F937F938F939F93AF93BF93EF93FF937B
:10057000E0911F01F09120010995FF91EF91BF914A
:10058000AF919F918F917F916F915F914F913F912B
:100590002F910F900FBE0F901F9018951F920F92E2
:1005A0000FB60F9211242F933F938F939F93AF9386
:1005B000BF9380913D0190913E01A0913F01B09188
:1005C000400130913C0123E0230F2D3720F40196A8
:1005D000A11DB11D05C026E8230F0296A11DB11D66
:1005E00020933C0180933D0190933E01A0933F01F5
:1005F000B09340018091410190914201A09143014B
:10060000B09144010196A11DB11D809341019093C9
:100610004201A0934301B0934401BF91AF919F91D8
:100620008F913F912F910F900FBE0F901F901895B3
:10063000789484B5826084BD84B5816084BD85B5BD
:10064000826085BD85B5816085BDEEE6F0E0808184
:1006500081608083E1E8F0E01082808182608083A5
:10066000808181608083E0E8F0E080818160808328
:10067000E1EBF0E0808184608083E0EBF0E080815A
:1006800081608083EAE7F0E08081846080838081FC
:1006900082608083808181608083808180688083A4
:1006A0001092C10008958E3008F08E50877020910E
:1006B000210190E4299F90011124822B80937C00DA
:1006C00080917A00806480937A0080917A0086FD20
:1006D000FCCF809178002091790090E0922B0895D2
:1006E0001F93CF93DF93182FEB0161E07FD020970A
:1006F00011F460E004C0CF3FD10531F461E0812FF7
:10070000DF91CF911F91AEC0E12FF0E0E859FF4F8C
:10071000E491E330F9F048F4E130B9F0E230A1F5CA
:1007200084B5806284BDC8BD34C0E730E9F0E830EC
:1007300019F1E43049F58091800080628093800057
:10074000D0938B00C0938A0024C084B5806884BD98
:10075000C7BD1FC080918000806880938000D093C7
:100760008900C093880015C08091B0008068809394
:10077000B000C093B3000DC08091B0008062809340
:10078000B000C093B40005C0C038D1050CF0B6CF9E
:10079000B0CFDF91CF911F910895833081F028F47D
:1007A000813099F08230A1F008958730A9F0883027
:1007B000B9F08430D1F4809180008F7D03C08091A6
:1007C00080008F7780938000089584B58F7702C072
:1007D00084B58F7D84BD08958091B0008F7703C06C
:1007E0008091B0008F7D8093B0000895CF93DF9308
:1007F00090E0FC01E458FF4F2491FC01E057FF4FCB
:100800008491882361F190E0880F991FFC01E255E3
:10081000FF4FC591D491FC01EC55FF4FA591B491C8
:10082000611109C09FB7F89488812095822388833D
:10083000EC912E230BC0623061F49FB7F89438819D
:10084000822F809583238883EC912E2B2C939FBF3E
:1008500006C08FB7F894E8812E2B28838FBFDF91D5
:10086000CF9108951F93CF93DF93282F30E0F901A4
:10087000E859FF4F8491F901E458FF4FD491F901F1
:10088000E057FF4FC491CC23C1F0162F811185DFB3
:10089000EC2FF0E0EE0FFF1FEC55FF4FA591B49148
:1008A0008FB7F894111105C09C91ED2FE095E923C5
:1008B00002C0EC91ED2BEC938FBFDF91CF911F9194
:1008C0000895FC01918D228D892F90E0805C9F4FCF
:1008D000821B91098F7399270895FC01918D828D58
:1008E000981731F0828DE80FF11D858D90E0089505
:1008F0008FEF9FEF0895FC01918D828D981761F025
:10090000828DDF01A80FB11D5D968C91928D9F5F46
:100910009F73928F90E008958FEF9FEF0895FC01F1
:10092000848DDF01A80FB11DA35ABF4F2C91848D78
:1009300090E001968F739927848FA689B7892C93AD
:10094000A089B1898C9180648C93938D848D981348
:1009500006C00288F389E02D80818F7D8083089511
:10096000CF93DF93EC01888D8823C1F0EA89FB895E
:10097000808185FD05C0A889B9898C9186FD0EC04E
:100980000FB607FCF5CF808185FFF2CFA889B98922
:100990008C9185FFEDCFCE01C2DFE8CFDF91CF9103
:1009A0000895EF92FF920F931F93CF93DF93EC0183
:1009B00081E0888F9B8D8C8D981305C0E889F9891B
:1009C000808185FD23C0F62E0B8D10E00F5F1F4F39
:1009D0000F731127E02E8C8DE8120BC00FB607FCA9
:1009E000FACFE889F989808185FFF5CFCE0197DFBD
:1009F000F2CF8B8DFE01E80FF11DE35AFF4FF0821D
:100A00000B8FEA89FB898081806207C0EE89FF89AC
:100A10006083E889F98980818064808381E090E047
:100A2000DF91CF911F910F91FF90EF900895CF929A
:100A3000DF92EF92FF921F93CF93DF93EC016A0155
:100A40007B01122FE889F98982E080834115514E9C
:100A500061057105A9F060E079E08DE390E0A70100
:100A60009601ABD4DA01C9010197A109B109B69584
:100A7000A79597958795AC01411580E15807A0F09F
:100A8000E889F989108260E874E88EE190E0A701B6
:100A9000960193D4BA01A901415051096109710924
:100AA0007695679557954795EC85FD855083EE853E
:100AB000FF854083188EEC89FD891083EA89FB89C4
:100AC000808180618083EA89FB898081886080835E
:100AD000EA89FB89808180688083EA89FB8980813B
:100AE0008F7D8083DF91CF911F91FF90EF90DF90FA
:100AF000CF9008951F920F920FB60F9211242F934B
:100B00008F939F93EF93FF93E0915501F0915601DE
:100B10008081E0915B01F0915C0182FD12C09081C7
:100B200080915E018F5F8F7320915F01821751F07A
:100B3000E0915E01F0E0EB5BFE4F958F80935E01EC
:100B400001C08081FF91EF919F918F912F910F9024
:100B50000FBE0F901F9018951F920F920FB60F9215
:100B600011242F933F934F935F936F937F938F93B2
:100B70009F93AF93BF93EF93FF9385E491E0CFDE14
:100B8000FF91EF91BF91AF919F918F917F916F9165
:100B90005F914F913F912F910F900FBE0F901F903B
:100BA0001895E5E4F1E01382128288EE93E0A0E06C
:100BB000B0E084839583A683B78389E291E0918333
:100BC000808385EC90E09587848784EC90E097871C
:100BD000868780EC90E0918B808B81EC90E0938B0A
:100BE000828B82EC90E0958B848B86EC90E0978BE7
:100BF000868B118E128E138E148E08958F929F9273
:100C0000AF92BF92CF92DF92EF92FF920F931F931A
:100C1000CF93DF937C018B016C0182E0C80ED11C65
:100C20004701E5E08E0E911CC0E0D0E0F601619135
:100C30006F014AE050E0C801C5D05C016EE2C80116
:100C400067D08A0D9B1DC80FD91FC814D90471F72E
:100C50004AE050E0F7016581C801B4D08C0F9D1FB8
:100C6000DF91CF911F910F91FF90EF90DF90CF9088
:100C7000BF90AF909F908F900895E2EEF1E089E3EE
:100C800091E09183808312821382148215820895E9
:100C9000CF92DF92EF92FF920F931F93CF93DF9348
:100CA0006C017A018B01C0E0D0E0CE15DF0589F040
:100CB000D8016D918D01D601ED91FC910190F081EB
:100CC000E02DC6010995892B11F47E0102C0219601
:100CD000ECCFC701DF91CF911F910F91FF90EF9063
:100CE000DF90CF9008956115710579F0FB010190B7
:100CF0000020E9F73197AF01461B570BDC01ED915E
:100D0000FC910280F381E02D099480E090E0089549
:100D1000DC01ED91FC910190F081E02D09944F925E
:100D20005F926F927F92EF92FF920F931F93CF93F8
:100D3000DF93CDB7DEB7A1970FB6F894DEBF0FBE35
:100D4000CDBF7C01FA01CB0119A2223008F42AE0C0
:100D50008E010F5D1F4F422E512C612C712CBF0153
:100D6000A30192012AD3F901CA01015011096A3085
:100D700014F4605D01C0695CD8016C93232B242BB3
:100D8000252B69F7B801C701AEDFA1960FB6F8941D
:100D9000DEBF0FBECDBFDF91CF911F910F91FF90AE
:100DA000EF907F906F905F904F90089521153105DF
:100DB00041F4DC01ED91FC910190F081E02D642F74
:100DC0000994ADCF9A01462F50E060E070E0EECF7D
:100DD000813039F018F0823051F0089510926E0091
:100DE000089580916F008D7F80936F0008958091AA
:100DF00070008D7F8093700081E08093B0008091BF
:100E0000B100887F84608093B1001092B300089590
:100E1000CF93C82F809122018C1307C0E8EBF0E03C
:100E2000E4918FEF8093220101C0EFEF8E2FD0DF8E
:100E300060E08C2FCF9116CD1F920F920FB60F92BC
:100E400011242F933F934F935F936F937F938F93CF
:100E50009F93AF93BF93EF93FF938091EB0190919A
:100E6000EC01A091ED01B091EE01892B8A2B8B2B27
:100E700051F18091E801E091E901F091EA0190815E
:100E8000892780838091EB019091EC01A091ED0185
:100E9000B091EE01181619061A061B06BCF48091D3
:100EA000EB019091EC01A091ED01B091EE01019761
:100EB000A109B1098093EB019093EC01A093ED019E
:100EC000B093EE0103C080912201A2DFFF91EF9168
:100ED000BF91AF919F918F917F916F915F914F9152
:100EE0003F912F910F900FBE0F901F90189540E8E3
:100EF00055E260E070E080E090E000C026E085E42C
:100F000091E095CD1F920F920FB60F9211242F935F
:100F10003F934F935F936F937F938F939F93AF9381
:100F2000BF93EF93FF9387EF92EC909385008093AC
:100F3000840032D0FF91EF91BF91AF919F918F913B
:100F40007F916F915F914F913F912F910F900FBEC5
:100F50000F901F90189587EF92EC909385008093E7
:100F60008400AFE6B0E08C918E7F8C93E0E8F0E0F7
:100F700080818C7F8083E1E8F0E08081877E8083C0
:100F800080818560808380818D7F80838C9181606A
:100F90008C93089581E008958091F00191E0980F7D
:100FA0009093F001882339F021E030E03093F20192
:100FB0002093F10106C078944CD9F8948091F00107
:100FC00081508093F00108950F931F93CF93DF9387
:100FD0001F92CDB7DEB781E089832ADB88DF0091DD
:100FE000230110912401F80111821082B6D9B3DFD8
:100FF00081E0F80120813181232B09F080E0898391
:101000007894789489818823C1F081E0F801208167
:101010003181232B09F480E08093EF019091EF015F
:1010200081E0911180E089838981882311F0B2DF0A
:1010300002C080E090E08983E5CF33DAF89480E065
:1010400090E00F90DF91CF911F910F910895D9D02B
:1010500008F481E008950CD00FC107D140F0FED014
:1010600030F021F45F3F19F0F0C0511139C1F3C0E5
:1010700014D198F39923C9F35523B1F3951B550B5C
:10108000BB27AA2762177307840738F09F5F5F4F5B
:10109000220F331F441FAA1FA9F333D00E2E3AF09C
:1010A000E0E830D091505040E695001CCAF729D0B6
:1010B000FE2F27D0660F771F881FBB1F2617370705
:1010C0004807AB07B0E809F0BB0B802DBF01FF2735
:1010D00093585F4F2AF09E3F510568F0B6C000C19B
:1010E0005F3FECF3983EDCF3869577956795B7956F
:1010F000F7959F5FC9F7880F911D9695879597F98A
:101100000895E1E0660F771F881FBB1F6217730702
:101110008407BA0720F0621B730B840BBA0BEE1F17
:1011200088F7E095089504D06894B111D9C0089566
:10113000BCD088F09F5790F0B92F9927B751A0F0F5
:10114000D1F0660F771F881F991F1AF0BA95C9F75B
:1011500012C0B13081F0C3D0B1E00895C0C0672F94
:10116000782F8827B85F39F0B93FCCF3869577950B
:101170006795B395D9F73EF49095809570956195F4
:101180007F4F8F4F9F4F0895E89409C097FB3EF41F
:1011900090958095709561957F4F8F4F9F4F9923C4
:1011A000A9F0F92F96E9BB279395F6958795779542
:1011B0006795B795F111F8CFFAF4BB0F11F460FF02
:1011C0001BC06F5F7F4F8F4F9F4F16C0882311F05A
:1011D00096E911C0772321F09EE8872F762F05C06E
:1011E000662371F096E8862F70E060E02AF09A9509
:1011F000660F771F881FDAF7880F9695879597F9FE
:101200000895990F0008550FAA0BE0E8FEEF161697
:101210001706E807F907C0F012161306E407F507EA
:1012200098F0621B730B840B950B39F40A2661F05E
:10123000232B242B252B21F408950A2609F4A14001
:10124000A6958FEF811D811D089597F99F6780E80E
:1012500070E060E008959FEF80EC089500240A9408
:101260001616170618060906089500240A94121681
:101270001306140605060895092E0394000C11F4B4
:10128000882352F0BB0F40F4BF2B11F460FF04C061
:101290006F5F7F4F8F4F9F4F089557FD9058440FBA
:1012A000551F59F05F3F71F04795880F97FB991FC5
:1012B00061F09F3F79F08795089512161306140682
:1012C000551FF2CF4695F1DF08C01616170618060F
:1012D000991FF1CF86957105610508940895E894EA
:1012E000BB2766277727CB0197F908958ADF08F493
:1012F0008FEF08950BD0C0CFB1DF28F0B6DF18F024
:10130000952309F0A2CFA7CF1124EACFC6DFA0F31F
:10131000959FD1F3950F50E0551F629FF001729F8A
:10132000BB27F00DB11D639FAA27F00DB11DAA1FA9
:10133000649F6627B00DA11D661F829F2227B00DF6
:10134000A11D621F739FB00DA11D621F839FA00D81
:10135000611D221F749F3327A00D611D231F849FD1
:10136000600D211D822F762F6A2F11249F57504028
:101370008AF0E1F088234AF0EE0FFF1FBB1F661FC3
:10138000771F881F91505040A9F79E3F510570F07C
:101390005CCFA6CF5F3FECF3983EDCF38695779564
:1013A0006795B795F795E7959F5FC1F7FE2B880F77
:1013B000911D9695879597F90895A1E21A2EAA1B7B
:1013C000BB1BFD010DC0AA1FBB1FEE1FFF1FA217F5
:1013D000B307E407F50720F0A21BB30BE40BF50BF2
:1013E000661F771F881F991F1A9469F7609570957B
:1013F000809590959B01AC01BD01CF010895A29FFE
:10140000B001B39FC001A39F700D811D1124911DD8
:10141000B29F700D811D1124911D0895EE0FFF1FC5
:0C1420000590F491E02D0994F894FFCFA2
:10142C00000047028000010000000000F0410000B5
:10143C00803F000080440000C84200A0967F027FDD
:10144C000201FF450200000000D104480661047B44
:0C145C00046D04B00400000000FE050058
:00000001FF
